:1000000000800020FD0100002902000029020000FC
:100010002902000029020000290200002902000034
:100020002902000029020000290200002902000024
:100030002902000028020000290200002902000015
:100040002902000029020000290200002902000004
:1000500029020000290200002902000029020000F4
:1000600029020000290200002902000029020000E4
:1000700029020000290200002902000029020000D4
:1000800029020000290200002902000029020000C4
:100090002902000049260000290200002902000070
:1000A00029020000290200002902000029020000A4
:1000B0002902000029020000290200002902000094
:1000C0002902000029020000290200002902000084
:1000D0002902000029020000290200002902000074
:1000E0002902000029020000290200002902000064
:1000F0002902000029020000290200002902000054
:100100002902000029020000290200002902000043
:100110002902000029020000290200002902000033
:100120002902000029020000290200002902000023
:100130002902000029020000290200002902000013
:1001400010B5054C237833B9044B13B1044800E0D3
:1001500000BF0123237010BD8800002000000000B4
:100160005C27000008B5034B1BB10349034800E0BE
:1001700000BF08BD000000008C0000205C270000CC
:10018000A3F5803A704700BF174B002B08BF134BF5
:100190009D46FFF7F5FF00218B460F461348144A92
:1001A000121A02F0A8FA0E4B002B00D098470D4B04
:1001B000002B00D098470020002104000D000D48BE
:1001C000002802D00C4800E000BF02F063FA2000D3
:1001D000290002F011FA02F049FA00BF00000800FD
:1001E00000000000000000000080002088000020C7
:1001F000480600200000000000000000064880477C
:100200000649074A074B9A42BEBF51F8040B42F811
:10021000040BF8E7FFF7B8FF2D0200006827000085
:100220000000002088000020FEE700BF80B400AF7F
:10023000074B084A9A60064BD3F88830044A43F4C7
:100240007003C2F8883000BFBD465DF8047B70477C
:1002500000ED00E00000000080B400AF034B1B681D
:100260001846BD465DF8047B704700BF08000020BB
:1002700080B483B000AF7860044A7B68136000BF2D
:100280000C37BD465DF8047B704700BF08000020B6
:1002900080B582B000AF00237B600E4B1B6F03F074
:1002A0000703032B09D0032B0ED8012B09D0022BF7
:1002B0000AD1FFF7D1FF786007E0074B1B687B602E
:1002C00003E0064B7B6000E0FEE77B6818460837DA
:1002D000BD4680BD0080004000000020002D31019F
:1002E00080B582B000AFFFF7D3FF7860094B1B6F7A
:1002F0001B0B03F00F033B603B6801337A68B2FBD2
:10030000F3F37B60044A7B6813607B681846083708
:10031000BD4680BD008000400C00002080B400AFCE
:10032000024B1846BD465DF8047B704700B4C40418
:1003300080B400AF034B1B681846BD465DF8047BD4
:10034000704700BF0000002080B400AF00231846B3
:10035000BD465DF8047B704780B400AF024B184681
:10036000BD465DF8047B7047002D310180B400AFBD
:100370004FF400431846BD465DF8047B704780B4D7
:1003800000AF4FF47A731846BD465DF8047B7047A2
:1003900080B400AF034B1B681846BD465DF8047B74
:1003A000704700BF0400002080B500AFFFF798FF42
:1003B0000346184680BD80B487B000AFF860B960CE
:1003C0007A607B68002B04D0FB6803F580537B6167
:1003D00003E0FB6803F500537B617B690121BA6888
:1003E00001FA02F21A6000BF1C37BD465DF8047BBB
:1003F000704780B483B000AF786039607B681A685A
:100400003B6822FA03F303F0010318460C37BD469C
:100410005DF8047B7047000080B500AF00BF042189
:100420000448FFF7E6FF0346002BF8D100BF00BFEA
:1004300080BD00BF8440004080B500AFFFF7ECFFF7
:100440004FF04023D3F884309B0903F00303DBB261
:10045000184680BD80B584B000AF03460A46FB80D5
:1004600013467B710023FB60FB885B099BB2002B6A
:1004700011D0FB885B099BB2012B02D10D4BFB60B5
:1004800009E0FB885B099BB2022B02D10A4BFB609F
:1004900001E00A4BFB60FB8803F01F03BB607B7924
:1004A0001A46B968F868FFF786FF00BF1037BD46E7
:1004B00080BD00BF648000406880004060820040D2
:1004C00090B585B000AF0346FB800023FB6000239E
:1004D000BB60FB88B3F5F06F00F0B182B3F5F06F4D
:1004E00000F3B482B3F5E06F00F0A282B3F5E06FE1
:1004F00000F3AC82B3F5D06F00F09382B3F5D06F08
:1005000000F3A482B3F5C06F00F08482B3F5C06F2E
:1005100000F39C82B3F5B06F00F06E82B3F5B06F5C
:1005200000F39482B3F5A06F00F05F82B3F5A06F83
:1005300000F38C82B3F5906F00F05082B3F5906FAA
:1005400000F38482B3F5806F00F04182B3F5806FD1
:1005500000F37C82B3F5607F00F02982B3F5607F01
:1005600000F37482B3F5407F00F01482B3F5407F4E
:1005700000F36C82B3F5207F00F00082B3F5207F9A
:1005800000F36482B3F5007F00F0EC81B3F5007FE7
:1005900000F35C82B3F5C07F00F0DF81B3F5C07F6C
:1005A00000F35482002B00F0D881002BC0F24E8261
:1005B000B3F5807F00F34A82202BC0F24782203BB4
:1005C000E02B00F2438201A252F823F05B09000005
:1005D0007D0900005B0900007D090000CF090000D3
:1005E000CF090000CF090000CF0900007D090000FD
:1005F0007D090000F909000095090000150A0000B6
:10060000230A0000950900007D0900007D09000013
:100610007D0900004D0A00004D0A00004D0A00004F
:100620004D0A00004D0A00004D0A0000EB090000D1
:10063000DD0900007D0900007D0900007D09000042
:100640003F0A0000310A00007D0900004D0A000049
:100650004D0A00004D0A00004D0A00004D0A00003E
:100660004D0A00004D0A00004D0A00004D0A00002E
:100670004D0A00004D0A00004D0A00004D0A00001E
:100680005B0900004D0A00005B0900005B090000E7
:100690005B090000CF0900004D0A00004D0A000070
:1006A0004D0A00004D0A00004D0A00004D0A0000EE
:1006B0004D0A00004D0A00004D0A00004D0A0000DE
:1006C0004D0A00004D0A00004D0A00005B090000C1
:1006D0005B0900004D0A00004D0A00004D0A0000B1
:1006E0004D0A00004D0A00004D0A00004D0A0000AE
:1006F0004D0A00004D0A00004D0A00004D0A00009E
:100700004D0A00004D0A00004D0A00004D0A00008D
:100710004D0A00004D0A00004D0A00004D0A00007D
:100720004D0A00004D0A00004D0A00004D0A00006D
:100730004D0A00004D0A00004D0A00004D0A00005D
:100740004D0A00004D0A00004D0A0000510900004A
:100750004D0A00004D0A00004D0A00004D0A00003D
:100760004D0A00004D0A00004D0A00004D0A00002D
:100770004D0A00004D0A00004D0A00004D0A00001D
:100780004D0A00004D0A00004D0A00004D0A00000D
:100790004D0A00004D0A00004D0A00004D0A0000FD
:1007A0004D0A00004D0A00004D0A00004D0A0000ED
:1007B0004D0A00004D0A00004D0A00004D0A0000DD
:1007C0004D0A00004D0A00004D0A00004D0A0000CD
:1007D0004D0A00004D0A00004D0A00004D0A0000BD
:1007E0004D0A00004D0A00004D0A00004D0A0000AD
:1007F0004D0A00004D0A00004D0A00004D0A00009D
:100800004D0A00004D0A00004D0A00004D0A00008C
:100810004D0A00004D0A00004D0A00004D0A00007C
:100820004D0A00004D0A00004D0A00004D0A00006C
:100830004D0A00004D0A00004D0A00004D0A00005C
:100840004D0A00004D0A00004D0A00004D0A00004C
:100850004D0A00004D0A00004D0A00004D0A00003C
:100860004D0A00004D0A00004D0A00004D0A00002C
:100870004D0A00004D0A00004D0A00004D0A00001C
:100880004D0A00004D0A00004D0A00004D0A00000C
:100890004D0A00004D0A00004D0A00004D0A0000FC
:1008A0004D0A00004D0A00004D0A00004D0A0000EC
:1008B0004D0A00004D0A00004D0A00004D0A0000DC
:1008C0004D0A00004D0A00004D0A00004D0A0000CC
:1008D0004D0A00004D0A00004D0A00004D0A0000BC
:1008E0004D0A00004D0A00004D0A00004D0A0000AC
:1008F0004D0A00004D0A00004D0A00004D0A00009C
:100900004D0A00004D0A00004D0A00004D0A00008B
:100910004D0A00004D0A00004D0A00004D0A00007B
:100920004D0A00004D0A00004D0A00004D0A00006B
:100930004D0A00004D0A00004D0A00004D0A00005B
:100940004D0A00004D0A00004D0A0000070A000091
:10095000FFF79EFC0346FB6079E0FFF7C1FC03460E
:10096000FB6074E0FFF794FC04464FF4007000F065
:1009700039F90346B4FBF3F3FB6068E0FFF7B0FC22
:1009800004464FF4207000F02DF90346B4FBF3F356
:10099000FB605CE0FFF7A4FC04464FF4207000F01D
:1009A00021F90346B4FBF3F35B08FB604FE007F16A
:1009B00008030021184600F0F9F8BC684FF4607095
:1009C00000F010F90346B4FBF3F3FB603FE007F1DE
:1009D0000C030021184600F017FC38E007F10C0367
:1009E0000021184600F038F831E007F10C0300212F
:1009F000184600F089F82AE007F10C030021184698
:100A000000F008FE23E007F10C030021184600F077
:100A100073FC1CE007F10C030021184600F030FCC9
:100A200015E007F10C030021184600F095FE0EE0DA
:100A300007F10C030021184600F046FE07E007F11D
:100A40000C030021184600F085FC00E000BFFB68A5
:100A500018461437BD4690BD80B584B000AF7860AD
:100A600039600023FB60274BD3F8243103F00703E0
:100A7000013B052B32D801A252F823F0950A000061
:100A8000AD0A0000C50A0000D10A0000A10A00005A
:100A9000B90A0000FFF7E0FBF8600523FB7220E0D5
:100AA000FFF7DAFBF8600623FB721AE0FFF740FC61
:100AB000F8600323FB7214E0FFF73AFCF8600423AC
:100AC000FB720EE0FFF748FCF8600223FB7208E0BF
:100AD000FFF73AFCF8600723FB7202E00023FB7289
:100AE00000BF7B68002B02D07B68FA681A603B6805
:100AF000002B02D03B68FA7A1A7000BF1037BD464F
:100B000080BD00BF0080004080B582B000AF78603B
:100B10003960124BD3F8203203F00303012B02D0CB
:100B2000022B05D009E03968786800F06DFB11E010
:100B30003968786800F0A4FB0CE07B68002B02D0D9
:100B40007B6800221A603B68002B02D03B680022C1
:100B50001A7000BF00BF0837BD4680BD008000404E
:100B600080B400AF054B03F580531A464FF4803331
:100B7000136700BFBD465DF8047B704700800040EE
:100B800080B500AF8020FFF79BFC0346054A9342E7
:100B900006D8054B03F500531A464FF4803313670C
:100BA00000BF80BD005A62020080004080B584B062
:100BB00000AF786039600023FB60FFF769FBF860E5
:100BC0000D23FB727B68002B02D07B68FA681A60E9
:100BD0003B68002B02D03B68FA7A1A7000BF1037CE
:100BE000BD4680BD80B485B000AF0346FB800023C6
:100BF000FB60FB88B3F5607F1AD0B3F5607F2EDC15
:100C0000B3F5207F24D0B3F5207F28DCB3F5007F37
:100C100016D0B3F5007F22DC002B02D0B3F5C07FE5
:100C20001DD1134B1B6F1B0B03F00F03FB6017E071
:100C30000F4BD3F880301B0903F00303FB600FE078
:100C40000B4BD3F890301B0E03F01F03FB6007E043
:100C5000074B1B6F9B0A03F00103FB6000E000BF22
:100C6000FB68013318461437BD465DF8047B7047B6
:100C70000080004090B583B000AF03463960FB8030
:100C8000FB88B3F5607F43D0B3F5607F7ADCB3F5C2
:100C9000207F66D0B3F5207F74DCB3F5007F4DD0A4
:100CA000B3F5007F6EDC002B02D0B3F5C07F69D1B5
:100CB0003B68012B0AD03B68022B07D03B68042B12
:100CC00004D03B68082B01D03B68102B00BF00F01C
:100CD00037FD00F0D5FCFFF743FF2D4B1B6F23F4CE
:100CE00070423B68013B1B03294913430B67FFF725
:100CF0005BFB0446FFF7A0FB0346C3F10203194662
:100D0000204600F027FA00F0C5FCFFF739FF3AE073
:100D10003B68012B04D03B68022B01D03B68042BBD
:100D200000BF1B4BD3F8803023F030023B68013BFF
:100D30001B0117491343C1F8803024E03B68002BA6
:100D400002D03B68202B00BF114BD3F8903023F02A
:100D5000F8523B68013B1B060D491343C1F8903024
:100D600011E03B68012B01D03B68022B00BF084B10
:100D70001B6F23F480623B68013B9B0204491343D1
:100D80000B6700E000BF00BF0C37BD4690BD00BF41
:100D90000080004080B584B000AF0346FB80002394
:100DA000FB73FB88B3F5086F00F01381B3F5086F90
:100DB00000F32481B3F5006F00F0FD80B3F5006F00
:100DC00000F31C81B3F5F06F00F0EE80B3F5F06F27
:100DD00000F31481B3F5E06F00F00981B3F5E06F23
:100DE00000F30C81B3F5D06F00F0EC80B3F5D06F59
:100DF00000F30481B3F5C06F00F0CF80B3F5C06F8E
:100E000000F3FC80B3F5B06F00F0B280B3F5B06FC3
:100E100000F3F480B3F5A06F00F0E280B3F5A06FAB
:100E200000F3EC80B3F5906F00F0C580B3F5906FE0
:100E300000F3E480B3F5806F00F0A180B3F5806F1C
:100E400000F3DC80B3F5807F00F0A080B3F5807FF5
:100E500000F3D480522B67DC242BC0F2CF80243BDC
:100E60002E2B00F2CB8001A252F823F07F0F00005E
:100E70007F0F00007F0F00007F0F0000FD0F0000BC
:100E8000FD0F0000710F0000FD0F00009B0F000020
:100E9000C50F0000FD0F0000FD0F0000FD0F00005A
:100EA000FD0F0000FD0F0000FD0F0000FD0F000012
:100EB000FD0F0000FD0F0000FD0F0000E10F00001E
:100EC000FD0F0000FD0F0000FD0F0000FD0F0000F2
:100ED000A90F0000EF0F0000FD0F0000FD0F000044
:100EE000FD0F0000FD0F0000FD0F0000FD0F0000D2
:100EF000FD0F0000FD0F0000FD0F0000FD0F0000C2
:100F0000FD0F0000FD0F0000FD0F0000FD0F0000B1
:100F1000FD0F0000FD0F0000FD0F0000FD0F0000A1
:100F2000FD0F00007F0F0000802B67D1364B1B6F39
:100F300003F00703013B032B16D801A252F823F05C
:100F4000630F0000510F0000570F00005D0F0000FD
:100F50000523FB730BE00323FB7308E00723FB73FC
:100F600005E00223FB7302E00023FB7300BF46E0B1
:100F700007F10F031946002000F04CFB3FE007F19A
:100F80000F031946002000F03FF938E007F10F0386
:100F90001946002000F0B0F931E007F10F031946BF
:100FA000002000F06DF92AE007F10F031946002038
:100FB00000F0D0F923E007F10F0319460020FFF7F6
:100FC0004BFD1CE007F10F031946002000F0C4FBA5
:100FD00015E007F10F031946002000F0D1F80EE0EC
:100FE00007F10F0319460020FFF78EFD07E007F118
:100FF0000F031946002000F067FB00E000BFFB7BF9
:1010000018461037BD4680BD0080004080B588B0CE
:1010100000AF7860786800F021FAF861FB69002B76
:1010200003D0FB69B3F1FF3F00BF454B03F580538D
:101030001A464FF4C0235366424B5B68012B0CD118
:10104000404B03F500531A460123536000BF3D4B4C
:101050009B6903F00303002BF9D18020FFF79AFE70
:101060000346052B05D100F06BFB00F009FBFFF7F1
:1010700077FDFB6923F04073FB617B68324A934242
:1010800004D07B68314A934205D009E0FB6943F004
:101090000073FB6104E0FB6943F08073FB6100BFF8
:1010A000FFF7DAF8B8617A68BB699A4203D901217F
:1010B000786800F027FC00BF254BDB6803F00603CF
:1010C000002BF9D1224B9B687B61214AFB6993601D
:1010D000FB6903F4F8133B611D4B9B6803F4F813A1
:1010E000FB603A69FB689A4203D17868FFF7C0F861
:1010F00004E0174A7B699360BB697B608020FFF73F
:1011000049FE0346052B0FD1FFF74EF9B860FFF7F4
:1011100093F90346C3F102031946B86800F01AF8C0
:1011200000F0B8FAFFF72CFD7A68BB699A4203D841
:101130000121002000F0E6FB00BF2037BD4680BD46
:101140000080004000C0014040420F0080841E002B
:101150000000014080B582B000AF786039603B6824
:10116000002B04DD0121786800F030F903E0002154
:10117000786800F02BF900BF0837BD4680BD00003D
:1011800080B584B000AF786039600023FB601D4BF0
:10119000D3F8003103F00303032B20D801A252F847
:1011A00023F000BFD9110000B5110000C1110000EB
:1011B000CD110000FFF7BCF8F8600323FB7211E0CB
:1011C000FFF7E6F8F8600823FB720BE0FFF7BCF8C6
:1011D000F8600723FB7205E00123FB7202E00023A5
:1011E000FB7200BF7B68002B02D07B68FA681A6034
:1011F0003B68002B02D03B68FA7A1A7000BF1037A8
:10120000BD4680BD0080004080B584B000AF7860EE
:1012100039600023FB60194BD3F8203103F003033E
:10122000032B12D0032B16D8012B02D0022B06D091
:1012300011E0FFF711F8F8600523FB720EE0FFF7ED
:1012400077F8F8600323FB7208E0FFF785F8F86091
:101250000223FB7202E00023FB7200BF7B68002BBD
:1012600002D07B68FA681A603B68002B02D03B68AA
:10127000FA7A1A7000BF1037BD4680BD008000406A
:1012800080B584B000AF786039600023FB60194BF3
:10129000D3F8403103F00303032B12D0032B16D8ED
:1012A000012B02D0022B06D011E0FFF75FF8F860A7
:1012B0000923FB720EE0FFF76BF8F8600823FB725E
:1012C00008E0FFF75CF8F8600B23FB7202E00023F4
:1012D000FB7200BF7B68002B02D07B68FA681A6043
:1012E0003B68002B02D03B68FA7A1A7000BF1037B7
:1012F000BD4680BD0080004080B584B000AF7860FE
:1013000039600023FB60124B1B6803F00403002BC1
:1013100006D0FEF7E5FF0346FB600C23FB7207E0F7
:1013200007F10B0207F10C0311461846FFF7A8FF5F
:101330007B68002B02D0FA687B681A603B68002B40
:1013400002D0FA7A3B681A7000BF1037BD4680BDE4
:1013500010E000E080B584B000AF78603960002311
:10136000FB60194BD3F8603103F00303032B12D059
:10137000032B16D8012B02D0022B06D011E0FEF76A
:10138000F5FFF8600923FB720EE0FFF701F8F86043
:101390000823FB7208E0FEF7F2FFF8600B23FB72F4
:1013A00002E00023FB7200BF7B68002B02D07B6849
:1013B000FA681A603B68002B02D03B68FA7A1A7010
:1013C00000BF1037BD4680BD0080004080B584B0AE
:1013D00000AF786039601E4B03F580531A464FF416
:1013E000003393660020FFF7FDFB02467B6802FB9B
:1013F00003F37B60174BDB6903F48033B3F5803F65
:101400000CBF01230023FB72124B41F67132DA63E9
:10141000104B9B6823F44013FB607B680E4A934299
:1014200007D93B68002B04DCFB6843F48013FB60A6
:1014300000E000BF074AFB689360FB7A002B02D0F4
:10144000044B0022DA6300BF1037BD4680BD00BFE9
:101450000080004000000340005A620280B485B062
:1014600000AF78600023FB607B685B4A934200F02A
:10147000A3807B68584A934200F2A3807B68574A56
:10148000934200F094807B68544A934200F2998022
:101490007B68534A934200F085807B68504A9342B0
:1014A00000F28F807B684F4A934276D07B684D4A2A
:1014B000934200F286807B684B4A934268D07B68F7
:1014C000494A93427DD87B68484A93425BD07B6807
:1014D000464A934275D87B68454A93424ED07B6812
:1014E000434A93426DD87B68424A934242D07B681C
:1014F000404A934265D87B683F4A934236D07B6826
:101500003D4A93425DD87B683C4A93422AD07B682F
:101510003A4A934255D87B68394A93421ED07B6839
:10152000374A93424DD87B68364A934212D07B6843
:10153000344A934245D87B68334A93420AD07B6849
:10154000314A93423DD87B68002B3CD07B682F4AC0
:10155000934236D12E4B9B6DFB6035E02C4B5B6E7E
:10156000FB6031E02A4B1B6FFB602DE0284B5B6F6B
:10157000FB6029E0264B9B6FFB6025E0244BD3F8F2
:101580008030FB6020E0224BD3F88430FB601BE00E
:101590001F4BD3F88830FB6016E01D4BD3F88C301E
:1015A000FB6011E01A4BD3F89030FB600CE0184B55
:1015B000D3F89430FB6007E0154BD3F89830FB600C
:1015C00002E000BF00E000BFFB6818461437BD46CC
:1015D0005DF8047B704700BF00B4C4040090D003E2
:1015E000007E5603006CDC0280D543020048E8010F
:1015F00080BA8C01C0EA21010024F400405DC600DD
:10160000C0CF6A0000093D0080841E0040420F00E8
:101610000080E00F80B584B000AF786039600023AF
:10162000BB60164BD3F8803103F00303012B02D0CB
:10163000022B09D00FE007F1080300211846FFF73D
:10164000E3FD0F23FB7309E0FEF786FE0346BB6054
:101650000223FB7302E00023FB7300BF7B68002BB7
:1016600002D0BA687B681A603B68002B02D03B68E6
:10167000FA7B1A7000BF1037BD4680BD0080004065
:1016800080B500AF02214FF42070FFF7F3FA00BFDE
:1016900080BD000080B582B000AF02237B604FF4B4
:1016A000C070FEF70DFF0346064A934201D801239E
:1016B0007B6079684FF42070FFF7DCFA00BF0837D1
:1016C000BD4680BD80F0FA0280B584B000AF78607E
:1016D00039600023FB60194BD3F8403203F0030359
:1016E000032B12D0032B16D8012B02D0022B06D0CD
:1016F00011E0FEF73BFEF8600923FB720EE0FEF7F7
:1017000047FEF8600823FB7208E0FEF738FEF86039
:101710000B23FB7202E00023FB7200BF7B68002BEF
:1017200002D07B68FA681A603B68002B02D03B68E5
:10173000FA7A1A7000BF1037BD4680BD00800040A5
:1017400080B500AFFEF7EAFD034600211846FFF71B
:101750003DFE00BF80BD000080B584B000AF786062
:1017600039600023FB60204BD3F8003203F00703FD
:10177000013B032B24D801A252F823F08D1700005F
:1017800099170000A5170000B1170000FEF7EEFD45
:10179000F8600923FB7216E0FEF7FAFDF8600823F3
:1017A000FB7210E0FEF7EBFDF8600B23FB720AE022
:1017B000FEF796FD03469B0AFB600E23FB7202E0D8
:1017C0000023FB7200BF7B68002B02D07B68FA68A5
:1017D0001A603B68002B02D03B68FA7A1A7000BF8F
:1017E0001037BD4680BD00BF0080004080B483B08C
:1017F00000AFEFF310833B603B687B6072B600BFC5
:101800007B6818460C37BD465DF8047B704780B492
:1018100083B000AF78607B68002B01D162B600BF57
:1018200000BF0C37BD465DF8047B704780B483B0C1
:1018300000AFEFF310833B603B687B6072B600BF84
:101840007B6818460C37BD465DF8047B704780B452
:1018500083B000AF78607B68002B01D162B600BF17
:1018600000BF0C37BD465DF8047B704780B483B081
:1018700000AF786039607B681A683B6822FA03F32E
:1018800003F0010318460C37BD465DF8047B704732
:1018900080B500AF00BF04210448FFF7E7FF03460F
:1018A000002BF8D100BF00BF80BD00BF84400040C6
:1018B00080B500AFFFF7ECFF4FF04023D3F8843042
:1018C0009B0903F00303DBB2184680BD80B483B0EC
:1018D00000AF0346FB71FB79013B4FF4806202FAD3
:1018E00003F318460C37BD465DF8047B704780B49F
:1018F00083B000AF0346FB7100BF0C37BD465DF8F7
:10190000047B704780B584B000AF78600B46FB70F5
:101910007B68002B03D1FEF7BBFCF86001E07B681D
:10192000FB600C4B1B78002B09D0FB680A4A9342E2
:1019300005D8FB781946012000F010F805E0FB7887
:101940001946022000F00AF800BF00BF1037BD465C
:1019500080BD00BFA4000020005A620290B587B08D
:1019600000AF03460A46FB711346BB71FFF7A0FFA9
:1019700003461A46FB79934241D0FEF789FC786111
:101980007B693B61FB79012B03D101217869FFF76A
:10199000E1FBFFF72BFFF8604FF0402303F5005306
:1019A0001A464FF000735366FB791846FFF79FFF06
:1019B0004FF04024FB791846FFF788FF0346236762
:1019C00003E04FF04023D3F884304FF040235B6EA8
:1019D00003F00073002B07D14FF04023D3F884307D
:1019E00003F02003002BECD0F868FFF710FFFB7921
:1019F000022B05D100217869FFF7ACFB00E000BFA6
:101A00001C37BD4690BD000080B483B000AF0346D4
:101A10003960FB71FB79002B07D0FB79012B04D0D7
:101A2000FB79022B01D0FB79032B0A48FA790121BB
:101A30003B68994013465B0013441B01034403F5C4
:101A400000531033196000BF0C37BD465DF8047BAE
:101A5000704700BF00C0034080B483B000AF0346AE
:101A60003960FB71FB79002B07D0FB79012B04D087
:101A7000FB79022B01D0FB79032B0A48FA7901216B
:101A80003B68994013465B0013441B01034403F574
:101A900080531033196000BF0C37BD465DF8047BDE
:101AA000704700BF00C0034080B584B000AFB9608C
:101AB0007B600346FB731346BB73FB7B002B07D095
:101AC000FB7B012B04D0FB7B022B01D0FB7B032B88
:101AD000BB7B002B0DD07B68002B05D0FB7BB9684E
:101AE0001846FFF7B9FF04E0FB7BB9681846FFF71B
:101AF0008BFFBB68072B20D82B49FA7B13465B0072
:101B000013441B010B4404331A68BB689B000F216C
:101B100001FA03F3DB431340B97BBA68920001FA80
:101B200002F211462048FA7B194313465B00134426
:101B30001B0103440433196021E01B49FA7B13465F
:101B40005B0013441B010B440C331A68BB68083B51
:101B50009B000F2101FA03F3DB431340B97BBA6802
:101B6000083A920001FA02F211460F48FA7B194333
:101B700013465B0013441B0103440C331960BB7B09
:101B8000002B0DD17B68002B05D0FB7BB968184674
:101B9000FFF762FF04E0FB7BB9681846FFF734FFEC
:101BA00000BF1037BD4680BD00C0034080B483B085
:101BB00000AF0346FB7197F90730002B0BDBFB7975
:101BC00003F01F02074997F907305B09012000FA6B
:101BD00002F241F8232000BF0C37BD465DF8047BBC
:101BE000704700BF00E100E080B483B000AF03465F
:101BF000FB7197F90730002B0CDBFB7903F01F0218
:101C0000074997F907305B09012000FA02F26033B7
:101C100041F8232000BF0C37BD465DF8047B7047B8
:101C200000E100E080B483B000AF03463960FB718F
:101C300097F90730002B0ADB3B68DAB20C4997F9B9
:101C400007301201D2B20B4483F800230AE03B684C
:101C5000DAB20849FB7903F00F03043B1201D2B258
:101C60000B441A7600BF0C37BD465DF8047B704705
:101C700000E100E000ED00E080B485B000AF7860E6
:101C800039607B6803F50053FB60FB683A681A60B3
:101C900000BF1437BD465DF8047B704780B584B043
:101CA00000AF786001212020FEF7D4FB0121212024
:101CB000FEF7D0FB1B4B01225A607B681B781B068A
:101CC000FB60184AFB6893607B685B781B047A684A
:101CD00092781146134A0B439361124BFF229A628A
:101CE000104B00229A630F4B00221A640D4B4FF0E9
:101CF00000425A650B4B03F500531A464FF0FF3371
:101D000013651520FFF770FF7B68DB7819461520F7
:101D1000FFF788FF1520FFF749FF00BF1037BD46CA
:101D200080BD00BF0000044080B586B000AFF86001
:101D3000B9607A60FB68DBB21A46012393407B618D
:101D40003D49BB681A68FB6841F82320BB685B7B90
:101D50003A491846FA6813465B0013441B010B44CA
:101D600060331860BB689B7A1A04BB68DB7A1B057A
:101D70001A43BB681B7B5B05304842EA0301FA68E3
:101D800013465B0013441B0103445C3319607B68FA
:101D90002A4823F00301FA6813465B0013441B0131
:101DA000034470331960254B03F500531A467B69D1
:101DB0001365FFF73BFD3861204B5A6D1F497B6966
:101DC00013434B65BB681B7A002B05D01B4B1A6C69
:101DD0001A497B6913430B64BB685B7A002B05D0FF
:101DE000164B9A6B15497B6913438B63BB681B7950
:101DF0001B04BA6892791343104A03F0FF1302F5EB
:101E000000529361BB685B791B04BA68D2791343B3
:101E10000A4A03F0FF1302F580529361796908487A
:101E2000FFF72AFF054A7B6993643869FFF70FFDC6
:101E300000BF1837BD4680BD00400440000004408C
:101E40003400044080B483B000AF78607B680F4AF0
:101E500093420FD07B680E4A93420BD07B680D4AA9
:101E6000934207D07B680C4A934203D07B680B4AAD
:101E7000934201D1012300E0002303F00103DBB210
:101E800018460C37BD465DF8047B7047008004405F
:101E900000C00440000005400040054000800540AF
:101EA00080B487B000AFF860B9607A60FB70FB68FF
:101EB000214A93421AD0FB68204A934214D0FB680F
:101EC0001F4A93420ED0FB681E4A934208D0FB681B
:101ED0001D4A934201D1042309E04FF0FF3306E08D
:101EE000032304E0022302E0012300E000237B61DE
:101EF000164B3B61FB78002B0BD039697A6913468E
:101F00005B0013445B00BA6813447A6841F82320ED
:101F10000BE07B68180239697A6913465B00134449
:101F20005B00BA68134441F8230000BF1C37BD466C
:101F30005DF8047B704700BF0080044000C004408F
:101F40000000054000400540008005400C81034032
:101F500080B584B000AF786039607868FFF772FFB1
:101F60000023FB60786800F0FFF87B6803F50053FE
:101F70001A46012313633B685B889A043B681B790C
:101F80001B0213433A68527A13433A685278002A84
:101F900001D0402200E0002213433A68927A002ADE
:101FA00001D0802200E0002213433A68D27A002A4E
:101FB00001D0202200E0002213433A68127B002A5D
:101FC00001D0102200E0002213433A68527B002A1D
:101FD00001D0082200E0002213433A689279002AD7
:101FE00002D04FF4803200E000221A437B685A602E
:101FF0007B6803F580531A46012313633B681B7803
:1020000083F00103DBB2002B02D07B680222DA608E
:102010007B6800225A623B68DB799B003A68127A3F
:1020200013433A685279002A01D0102200E00022BE
:102030001343FB607B68FA689A603B681B78002B4F
:1020400002D07B680122DA6000BF1037BD4680BD38
:1020500080B586B000AFF860B9607A60F868FFF7C5
:10206000F1FEF86800F080F8FB6803F500531A46AB
:10207000012313637B689B791A467B68DB79002B0D
:1020800002D04FF4801300E0002313437A68527AA1
:10209000002A01D0102200E000221A437B68DB7A7C
:1020A000DB041A43F968BB6803335B010B441A6015
:1020B0007B681B7A002B1FD0FA68BB6803335B0177
:1020C00013441A687B681B7B5B041A43F968BB687E
:1020D00003335B010B441A607B681B7B012B14BF2D
:1020E00001230023FB757B689B781A46FB7DB9684A
:1020F000F868FFF7D5FE0BE0FA68BB6803335B01B5
:1021000013441A68F968BB6803335B010B441A6017
:10211000FB6803F580531A46012313637B681B7821
:102120009A067B685B781B061A437B68DB781B0387
:102130001A437B681B799B021A437B685B791B02FD
:1021400013437A68927A002A01D0042200E0002228
:102150001A43F968BB6803335B010B4404331A600C
:1021600000BF1837BD4680BD80B483B000AF786033
:1021700000BF7B681B6B03F00103002B05D07B685D
:102180001B6903F04003002BF3D100BF0C37BD46A1
:102190005DF8047B7047000080B400AF044B1B68FF
:1021A0001B0CDBB21846BD465DF8047B704700BFD0
:1021B0000080E00F80B582B000AFFFF7EDFF03466F
:1021C000012B1CD1104B5B6E03F48023002B0CBF42
:1021D00001230023FB710C4B03F580531A464FF487
:1021E00080235366094B04221A60FB79002B06D02A
:1021F000054B03F500531A464FF48023536600BF86
:102200000837BD4680BD00BF00800040202001404F
:1022100080B483B000AF78607B680F4A93420FD0E0
:102220007B680E4A93420BD07B680D4A934207D0DD
:102230007B680C4A934203D07B680B4A934201D1DE
:10224000012300E0002303F00103DBB218460C3742
:10225000BD465DF8047B70470080044000C0044028
:1022600000000540004005400080054080B483B078
:1022700000AF78607B68324A93420ED07B68314A67
:1022800093420AD07B68304A934206D07B682F4A3B
:10229000934202D07B682E4A934200BF7B68284A53
:1022A000934245D07B68264A934203D07B68254AF7
:1022B00093423AD07B68224A934207D07B68214AF6
:1022C000934203D07B68204A93422BD07B681C4A00
:1022D00093420BD07B681B4A934207D07B681A4A13
:1022E000934203D07B68194A934218D07B68144A02
:1022F000934212D07B68134A93420ED07B68124AF5
:1023000093420AD07B68114A934206D07B68104AF8
:10231000934202D14FF6FF730CE000230AE04FF620
:10232000FF7307E04FF6FF7304E04FF6FF7301E021
:102330004FF0FF3318460C37BD465DF8047B7047FD
:102340000080044000C004400000054000400540FB
:102350000080054080B582B000AF78600B46FB700E
:102360007868FFF755FFFB78002B03D07B680122CC
:10237000DA6002E07B680222DA6000BF0837BD46FF
:1023800080BD80B483B000AF78607B68DB6918469D
:102390000C37BD465DF8047B704780B582B000AF56
:1023A000786039607868FFF761FF7B681B6B7B683A
:1023B0003A68DA6100BF0837BD4680BD80B483B09B
:1023C00000AF7860054B03F500531A467B68136530
:1023D00000BF0C37BD465DF8047B70470000044029
:1023E00080B400AF034B1B6D1846BD465DF8047BFF
:1023F000704700BF0000044080B500AF00230422F6
:1024000006210020FFF750FB00BF80BD80B500AF64
:102410000648FEF7FBFD01213A20FEF71BF80121DB
:102420002420FEF717F800BF80BD00BF00B4C4042D
:1024300080B588B000AF07F1100300221A605A601F
:102440009A609A8101233B743B4600221A605A60CD
:102450009A601A7300233B740123BB760323BB717C
:1024600000233B7507F1100319461348FFF770FD71
:10247000124B0122C3F87C25104B4FF4C022C3F845
:1024800080253B461A4600210B48FFF7E1FD24203A
:10249000FEF716F803461B0A094AA2FB03231B0991
:1024A00019460548FFF779FF01210348FFF752FF5E
:1024B00000BF2037BD4680BD0080044000C00340FF
:1024C000598B4F0180B586B000AF00237B61124B62
:1024D0001B683B6107F110031846FFF7DFFB3B4623
:1024E00000221A605A609A60DA600C4B3B600C4A1A
:1024F000D378012161F38303D370094A93786FF392
:10250000041393707B693946054A1846FFF70CFCA3
:1025100000BF1837BD4680BD5427000003000200ED
:102520001000002080B582B000AF00237B6015E072
:102530000F48FFF726FF02460E497B6831F813303B
:1025400002FB03F30C4AA2FB03235B0999B20B4A7B
:102550007B6822F813107B6801337B607B68B3F5DE
:102560008C7FE5D300BF00BF0837BD4680BD00BFEC
:1025700000800440A80000201F85EB5118040020B3
:1025800080B582B000AF0023BB710023FB7107E070
:10259000FB79164A002122F81310FB790133FB71F5
:1025A000FB79272BF4D90023FB710EE0BB795B008C
:1025B0000F4A134430220F49184600F08FF8BB79B8
:1025C0001833BB71FB790133FB71FB79092BEDD912
:1025D000BB795B00064A134450220449184600F0B8
:1025E0007DF800BF0837BD4680BD00BFD80200207F
:1025F000A80000202427000080B500AFFFF7DAFD17
:1026000018220D490D4800F069F818220A490C48B3
:1026100000F064F8182208490A4800F05FF8FFF754
:10262000AFFFFFF7F3FEFFF7E7FEFFF701FFFFF74E
:1026300079FFFFF747FFFEE724270000280300206B
:10264000580300208803002080B582B000AFFFF758
:10265000C7FE78607868FFF7B1FE7B68002B00DA70
:10266000FEE700BF0837BD4680BD000008B5074B38
:10267000044613B1002100E000BF054B1868836ACF
:1026800003B19847204600F03FF800BF000000006B
:102690005827000070B50D4D00260D4C641BA4108A
:1026A000A64209D10B4D00260B4C00F02FF8641BFD
:1026B000A410A64205D170BD55F8043B01369847D9
:1026C000EEE755F8043B01369847F2E7800000201A
:1026D0008000002080000020840000200A44431E67
:1026E000914200D1704710B511F8014B914203F8A7
:1026F000014FF9D110BD02440346934200D1704707
:1027000003F8011BF9E70000FEE700BFF8B500BFC2
:10271000F8BC08BC9E467047F8B500BFF8BC08BCC2
:102720009E46704719001900190019001900190078
:10273000190019003200320032003200320032003B
:10274000320032001900190019001900190019008F
:10275000190019001E0000032000002000000000E6
:0827600020DAFF7F01000000F8
:1027680000F0490200800000C0EA2101C0EA21010E
:10277800701110301804002070800440030000001D
:102788000000000000000000000000000000000041
:102798000000000000000000000000000000000031
:1027A8000000000000000000000000000000000021
:1027B8000000000000000000000000000000000011
:1027C8000000000000000000000000000000000001
:1027D80000000000000000000000000000000000F1
:0827E800650100004101000041
:04000003000001FDFB
:00000001FF
